:040000000200C63202
:01000B0032C2
:0100130032BA
:01001B0032B2
:0100230032AA
:01002B0032A2
:01003300329A
:01003B003292
:03004300023F0079
:01004B003282
:03005300023F0069
:200058000000E2FBEAF2802C0000E0FBEAF08024E6B50202EBF62200E2B50202EBF222008E
:20007800E0B50202EBF02230F6E0A88220F5D3EAC6F582228B822230F6E6A88220F5D9809E
:01009800CF98
:02011F00C2001C
:030133000200992E
:030099000203D887
:2001360090E6047480F00000000090E61AE4F00000000090E6047406F00000000090E61A73
:20015600740CF00000000090E604E4F0000000002290E61A7404F000000000220201759087
:20017600E6007412F00000000090E6017453F00000000090E60B7403F0000000001202944F
:200196001206DA75820012086CAD82AE83AFF0903CB8EDF0EEA3F0EFA3F075820112086CF9
:2001B600AD82AE83AFF0903CBBEDF0EEA3F0EFA3F07582071204DDAD82AE83AFF0903CBE49
:2001D600EDF0EEA3F0EFA3F075108F7511C27512F57513287514018D828E838FF01204FD65
:2001F600752216752300903C0075F000120729E5827042903CB8E0FDA3E0FEA3E0FF7540FF
:200216000075413C75420075430B8D828E838FF0120B4E903CBBE0FDA3E0FEA3E0FF754036
:200236002C75413C75420075430B8D828E838FF0120B4E8028903CB8E0FDA3E0FEA3E0FFFA
:200256008D828E838FF0120AD7903CBBE0FDA3E0FEA3E0FF8D828E838FF0120AD775820600
:20027600120621758207120621751C00758206120633751C0075820712063302013690E696
:2002960018E4F00000000090E619E4F00000000090E61AE4F00000000090E61BE4F0000030
:2002B600000090E6127420F00000000090E6137420F00000000090E61474E0F00000000041
:2002D60090E6157460F00000000090E609E4F00000000090E6247402F00000000090E625CB
:2002F600E4F00000000090E6047486F00000000090E604E4F00000000022C0E0C082C0831B
:20031600D2005391EF90E65D7401F0D083D082D0E032C0E0C082C0835391EF90E65D740222
:20033600F0D083D082D0E032C021C0E0C0F0C082C083C007C006C005C004C003C002C0011E
:20035600C000C0D075D0007582001216795391EF90E65D7410F0D0D0D000D001D002D0035A
:20037600D004D005D006D007D083D082D0F0D0E0D02102009CC021C0E0C0F0C082C083C0F7
:2003960007C006C005C004C003C002C001C000C0D075D0007582011216795391EF90E65DD7
:2003B6007420F0D0D0D000D001D002D003D004D005D006D007D083D082D0F0D0E0D021025F
:2003D600009CC20090E680E043E00AF09005DC1217AD90E680E053E0F7F090E600E054E7EE
:2003F6004410F090E601E043E040F0D2E890E668E043E008F090E65CE043E001F090E65CCE
:20041600E043E002F090E65CE043E020F090E65CE043E010F0D2AF1201753000FD12137B41
:20043600C20080F6E5827014AD1CAE1DAF1E8D828E838FF0E412177B7582012275820022C8
:20045600E582FF7065E51C706190E6837402F07422F07416F07436F090E6047480F0000022
:20047600000090E6047482F00000000090E604E4F00000000090E6917480F000000000903D
:20049600E6917480F00000000090E6047480F00000000090E6047486F00000000090E604AF
:2004B600E4F000000000758201227582002275820122AF82BF01047F0180027F008F82225C
:0704D60075820022020F4DA8
:091885000000000000000000005A
:2004DD00AF82903C58EFF08F82C007120692D007751C008F821206A4903C5875F000222247
:2004FD00AD82AE83AFF0ED4E700475820122758203C007C006C0051206CBD005D006D00766
:20051D008D828E838FF0121800FC751C018C82C007C006C0051206A47582031206CBD00599
:20053D00D006D0078D828E838FF0121800FC751C008C82C007C006C0051206A47582031273
:20055D0006CBD005D006D0077C008CF005F0A810A911AA12AB13800DC3EB13FBEA13FAE929
:20057D0013F9E813F8D5F0F0E85401F582C007C006C005C004120707D004D005D006D0076A
:20059D000CC3EC648094A040C17C008CF005F0E5148002C313D5F0FB5401F582C007C00613
:2005BD00C005C004120707D004D005D006D0070CC3EC6480948840D3758203C007C006C00A
:2005DD00051206CBD005D006D0078D828E838FF0121800FC751C018C82C007C006C00512CB
:2005FD0006A47582031206CBD005D006D0078D828E838FF0121800FD751C008D821206A4B3
:04061D0075820022C0
:20062100AF828FF005F07401800225E0D5F0FB42B522AF82E51C60108FF005F07401800232
:2006410025E0D5F0FB42B0228FF005F07401800225E0D5F0FBF452B022AF828FF005F0745F
:2006610001800225E0D5F0FBF452B58FF005F07F017E008006EF2FFFEE33FED5F0F7ACB0EA
:200681007D00EC5207ED5206EF4E24FFE433F58222AF828FF005F07401800225E0D5F0FBE1
:2006A10042B222AF82E51C60108FF005F07401800225E0D5F0FB4280228FF005F074018004
:2006C1000225E0D5F0FBF452802285821CE51C6007E51C14F51C80F52243B50C751C007518
:2006E100820202063343B504751C017582021206337582031206CB751C00758202120633B6
:200701007582030206CBAF8243B5088F1C7582031206330206E675820312065AAF82C00798
:080721001206E6D0078F8222C8
:20072900AD82AE83AFF0ED4E70047582012275762475770075784075720075733F757404C5
:20074900757500758251C007C006C005121317D005D006D00774BAB52411740CB5250C745C
:20076900C0B5260774ABB52702800475820122AB22AC23EB2BF574EC33F575E5742574F5A8
:2007890074E57533F5758D768E778F7875720475733F75825112131775820022AD82AE83C7
:2007A900AFF0752ABA752B0C752CC0752DABED4E70047582012275692A756A00756B407599
:2007C900650075663F756704756800758251C007C006C005121287D005D006D007AB28AC8E
:2007E90029EB2BF567EC33F568E5672567F567E56833F5688D698E6A8F6B75650475663FE8
:0A08090075825112128775820022D9
:20081300AE82AF837D0B8DF005F0AB06AC078007C3EC13FCEB13FBD5F0F6EB5401F582C095
:2008330007C006C005120707D005D006D0071DED30E7D3E52E24FFE433F5821207077F001A
:20085300758200C007120707D0070FC3EF6480948340ED7582030206CBAF82BF02004007E1
:2008730090000075F00022EF75F003A42459FD743C35F0FC7E008D828C83EFF0EF70297491
:20089300012DFAE43CFB8E078A828B838FF0E412177B74022DFAE43CFB8E078A828B838F56
:2008B300F0740412177B802774012DFAE43CFB8E078A828B838FF0740112177B042DFAE465
:2008D3003CFB8E078A828B838FF0740512177B74012DFAE43CFB8E078A828B838FF0121874
:2008F30000F582C007C006C005C004C003C002120621D002D003D004D005D006D0078A8293
:200913008B838FF0121800FA751C018A82C006C005C004120633D004D005D0068D828C833E
:200933008EF02222AD82AE83AFF0ED4E70047582032274F5252F5004758202220DBD000121
:200953000E8D828E838FF0121800FC751C008C82C007C006C005120633AB2F7C008C2E8BDA
:20097300828C83120813D005D006D0077C1F8CF005F0A830A931AA32AB33800DC3EB13FB63
:20099300EA13FAE913F9E813F8D5F0F0E85401F582C007C006C005C004120707D004D0051D
:2009B300D006D0071CEC30E7C58D828E838FF0121800FD751C018D8212063375820022AD1B
:2009D30082AE83AFF0E4F9FAFBFCED4E70047582032274F52534500475820222E535453653
:2009F300700475820322C001C002C003C00474012DF53DE43EF53E8F3F853D82853E838544
:200A13003FF0121800F8751C008882C004C003C002C001120633D001D002D003D004A8345C
:200A33007C00752E0188828C83C004C003C002C001120813D001D002D003D00475381FD04D
:200A530004D003D002D001E929F539EA33F53AEB33F53BEC33F53C120717E5826002740171
:200A7300F8E4FDFEFFE84539F9ED453AFAEE453BFBEF453CFC1538E53830E7CB853D8285DE
:200A93003E83853FF0121800FF751C018F82C004C003C002C001120633D001D002D003D067
:200AB30004AD35AE36AF378D828E838FF0E912177BA3EA12177BA3EB12177BA3EC12177BB1
:200AD30075820022AD82AE83AFF0ED4E7004758203227C008D018E028F0389828A838BF061
:200AF30012180075F02CA4242DFA741835F0FBEC2C25E02AF582E43BF583E493F530A3E415
:200B130093F531A3E493F532A3E493F5338C2F8D828E838FF0C007C006C005C004120937C4
:200B3300AB82D004D005D006D007EBFA60038A82220CBC0B00409D75820022AD82AE83AFD1
:200B5300F0ED4E700475820322E54045417004758203227C00C3EC95435058BC0B00505377
:200B7300EC75F004A42540F9E54135F0FAAB4289828A838BF0121800F530A3121800F53104
:200B9300A3121800F532A3121800F5338C2F8D828E838FF0C007C006C005C004120937ABEC
:200BB30082D004D005D006D007EBFA60038A82220C80A275820022AD82AE83AFF0ED4E70E3
:190BD30003F5822274022DFDE43EFE8D828E838FF0121800F58202065A0B
:20182D009717A4BE88025528DC219F0E008088690820080070AE47060000000800000000C6
:20184D0081F2E001020000000400000019A0A4BE88025528DC319F0E008088780820060097
:18186D0070CD4C00000000080000001081F2E001020000000400000068
:200BEC0090E7407410F090E741745DF090E74274C0F0903CB8E0FDA3E0FEA3E0FF8D828E67
:200C0C00838FF0120BCAAF8290E743EFF0903CBBE0FDA3E0FEA3E0FF8D828E838FF0120BF2
:200C2C00CAAF8290E744EFF090E745E4F090E68AF090E68B7406F07582012290E6BBE0FFFE
:200C4C0090E6BAE0FEEF700D903CB8E0FCA3E0FDA3E0FF800B903CBBE0FCA3E0FDA3E0FFBC
:200C6C008C018D028F03EC4D7003F582227535447536007537408E3489828A838BF0120980
:200C8C00D2E582600475820022AF47AC467E007B007D008F00E4F9FAFFE84203E94204EA89
:200CAC004205EF4206AA45E4F8F9FFE84203E94204EA4205EF4206AF44E4F8F9FAE8420334
:200CCC00E94204EA4205EF420690E740EBF0ECA3F0EDA3F0EEA3F090E68AE4F090E68B7416
:200CEC0004F07582012290E6BFE0FE7F0090E6BEE07C004207EC420690E6BBE0F54890E677
:200D0C00BAE0F549C3EF9404EE940050047582012290E68BE4F090E68AF090E6A0E020E1F9
:200D2C00F990E740E0A3E0A3E0A3E0FA90E740E0A3E0FFA3E0F9A3E0FB8F0689078B017B55
:200D4C00007E0079008A00E4FAFCFDE84206EA4207EC4201ED420390E740E0F8A3E0FAA3BC
:200D6C00E0FCA3E08C058A048802E4F8FAFDE84206EA4207EC4201ED420390E740E0F8A396
:200D8C00E0A3E0A3E08805E4F8FAFCE84EF54AEA4FF54BEC49F54CED4BF54DE548700D90EA
:200DAC003CB8E0F9A3E0FAA3E0FB800B903CBBE0F9A3E0FAA3E0FB89008A068B07E94A702B
:200DCC0003F5822285492F854A30854B31854C32854D3388828E838FF0120937E582B4015E
:200DEC0000E433F5822290E6BFE0FE7F0090E6BEE07C004207EC4206C3EF9405EE9400408B
:200E0C001A903CBEE0F54EA3E0F54FA3E0F550903CBEE0F5F0A3E045F0700475820122904B
:200E2C00E68BE4F090E68AF090E6A0E020E1F990E740E0A3E0A3E0A3E0F990E740E0A3E04E
:200E4C00FAA3E0FBA3E0FC8A008B028C03E4FCF8FBFDFEFFE94200ED4202EE4203EF420458
:200E6C0090E740E0F9A3E0FDA3E0FEA3E08E078D068905E4F9FDFFE94200ED4202EE420334
:200E8C00EF420490E740E0F9A3E0A3E0A3E08907E4F9FDFEE948F510ED4AF511EE4BF512DD
:200EAC00EF4CF51390E744E0F514854E82854F838550F01204FD7582012290E68BE4F0903C
:200ECC00E68AF0FF903CB8E0FCA3E0FDA3E0FEEF75F004A4245FFA743C35F0FB8A358B367D
:200EEC007537008F348C828D838EF0C0071209D2D007903CBBE0FCA3E0FDA3E0FE740B2F3E
:200F0C0075F004A4245FFA743C35F0FB8A358B367537008F348C828D838EF0C0071209D22C
:200F2C00D0070FBF0B00409C752816752900903C5F75F0001207A5E582B40100E433F582D0
:200F4C0022AF82BF40028023BF41028021BF4202801FBF4402801DBF45028028BF46028072
:200F6C0033BF47028041BF5044803F020BEC020C47020CF290E68BE4F090E68AF0120136FB
:200F8C007582012290E68BE4F090E68AF01201677582012290E68BE4F090E68AF012016793
:110FAC0012017275820122020EC6020DF275820022A5
:203E000012010002FFFFFF40B40404100100010200010A060002FFFFFF4001000902200004
:203E200001010080320904000002FFFFFF03070502020002000705860200020009022000EC
:203E400001010080320904000002FFFFFF0307050202400000070586024000000403090467
:203E60000603480069000C03540068006500720065000C036900460061006300650000009A
:200FBD0085825BE5562551FDE5573552FE903CB7E4F0755C02903CB7E060047582002290A9
:200FDD00E678E043E080F090E678E030E21090000AC006C0051217ADD005D00680D7E55BF6
:200FFD0025E0FB90E679F090E678E020E006903CB7E060F3903CB7E060047582002290E615
:20101D0078E020E2B090E678E020E13790E678E043E040F090E678E030E606903CB7E060D5
:20103D00F3903CB7E0600475820022D55C047582002290000AC006C0051217ADD005D006CC
:20105D00020FD27A007B00C3EA9DEB9E40030210F5C3EA9551EB95525016EA2553F8EB3539
:20107D0054F9AF55888289838FF0121800FF801DEAC39551F8EB9552F9E82558F8E935597D
:20109D00F9AC5A888289838CF0121800FF90E679EFF00ABA00010B90E678E020E006903C3B
:2010BD00B7E060F3903CB7E060047582002290E678E030E203020FD290E678E020E188909C
:2010DD00E678E043E040F090E678E030E606903CB7E060F37582002290E678E043E040F088
:2010FD0090E678E030E606903CB7E060F3903CB7E060047582002275820122858262903C04
:20111D00B7E4F004B55D0814B55E0474018001E4FE903CB7E06004758200227C007D00909D
:20113D00E678E043E080F090E678E030E20C90000AC0061217ADD00680D7E56225E0FB909B
:20115D00E67974014BF090E678E020E006903CB7E060F3903CB7E060047582002290E6780B
:20117D00E020E2AD90E678E020E11990E678E043E040F090E678E030E606903CB7E060F31A
:20119D0075820022EE600890E678E043E020F090E679E0E4F563F56474012563F8E43564EC
:2011BD00F9C3E8955DE9955E506590E678E020E006903CB7E060F3903CB7E06004758200A3
:2011DD002290E678E030E20302112E74022563F8E43564F9E8B55D0CE9B55E0890E678E068
:2011FD0043E020F0A863A9640563E4B563020564AC63AD64E8255FF8E93560F9AF6190E637
:20121D0079E0FB888289838FF012177B0211B590E678E020E006903CB7E060F3903CB7E06F
:20123D0060047582002290E678E030E20302112E90E678E043E040F0EC255FFCED3560FDE4
:20125D00AF6190E679E08C828D838FF012177B90E678E030E606903CB7E060F3903CB7E04E
:20127D006004758200227582012285826CE4F570F571AB65AC66C3E5709567E571956850BF
:20129D00757A0090E678E030E4067A018C078F6DEA04FFEA246DF98B02A702EF04FAEF24B9
:2012BD006DF9E5702569FDE571356AFEAF6B0570E4B5700205718D828E838FF0121800F708
:2012DD008A5175520075536D755400755540E4F556F557F558F559F55A856C82C004C003E8
:2012FD00120FBDE582D003D0047003F582220BBB00010C02129375820122AF827E0090E620
:20131D0078E030E4067E01AD738D79EE04FDEE2479F9AE72A7068D517552007553797554AA
:20133D0000755540E4F556F557F558F559F55A8F82C007120FBDE582D0077003F58222859C
:1E135D00745D85755E85765F8577608578618F82121118E5827003F58222758201225C
:0600F500E478FFF6D8FDDF
:1201210075160075170075183C75193E751A1C751B3EA7
:20137B0090E6B9E0FF24F4500302147BEF240A83F582EF241083F583E473ADC27BD77B7B05
:20139B00EC7BFC132A5D1313141314141314131414141214F1E582600302149090E6A0E0CD
:2013BB0043E001F0021490121585E582600302149090E6A0E043E001F00214901215F4E58C
:2013DB0082600302149090E6A0E043E001F00214901204D6E58260030214901216A4021479
:2013FB00901204C4AF8290E740EFF090E68AE4F090E68B04F002149090E6BAE0F582120495
:20141B00C8E582707090E6A0E043E001F0806690E6BCE0FF751C15751D00751E408F821273
:20143B00043AE582700A90E6A0E043E001F0804590E740E515F090E68AE4F090E68B04F039
:20145B00803390E6BCE0FF90E6BAE0F51C8F82120456E582701F90E6A0E043E001F080157A
:20147B0090E6B9E0F5821204DAE582700890E6A0E043E001F090E6A0E043E080F022AF8216
:20149B00747F5FFE24F750030214EDEE240A83F582EE240D83F583E473C6CADDEDE1EDE5DC
:2014BB00EDE914141414141414141490E6A022EF30E7067EA27FE680047EA17FE68E828F17
:2014DB00832290E6A32290E6A42290E6A52290E6A6229000002290E6B8E0FFBF80028022B8
:2014FB00BF81028008BF8202803702157D90E740E4F090E741F090E68AF090E68B7402F0EF
:20151B008064E51725E0FFE516420790E740EFF090E741E4F090E68AF090E68B7402F0808F
:20153B004590E6BCE0F582121499AE82AF838E048F05EE4F7003F582228C828D83E0FC3008
:20155B00E0067E017F0080047E007F0090E740EEF090E741E4F090E68AF090E68B7402F093
:20157B008004758200227582012290E6B8E0FF6005BF0258801B90E6BAE0FFBF0105751713
:20159B0000805290E6BAE0FFBF060280487582002290E6BAE0703190E6BCE0F582121499AE
:2015BB00AE82AF83E0FD5305FE8E828F83EDF090E6BCE0FF30E70343071053071F90E68385
:2015DB00EFF074204FF0800D7582002290E6B9E0F5820204DA7582012290E6B8E0FF6005A6
:2015FB00BF026E802690E6BAE0FFBF020302167590E6BAE0FFBF0105751701805D90E6BA2D
:20161B00E0FFBF060280537582002290E6BAE0703C90E6BCE0F582121499AE82AF83EE4F7A
:20163B007003F582228E828F83E0FD4305018E828F83EDF090E6BCE0FF30E7034307105364
:20165B00071F90E683EFF074204FF0800D7582002290E6B9E0F5820204DA75820122AF8247
:20167B00D20110AF02C201EF600E75181C75193E751A3C751B3E800C75183C75193E751ADD
:20169B001C751B3EA20192AF2290E6BBE0FFBF01028019BF02028024BF0302802CBF060335
:2016BB00021755BF07030217650217727E007F3E90E6B3EFF090E6B47400F02290E6B3E5CE
:2016DB0019F090E6B4E518F0227D5C7E3E7F8090E6BAE0F51C7B00EBB51C0280430B8D0064
:2016FB008E018F028D828E838FF012180028F8E439F9880589068A0774012DF9E43EFA8FBD
:20171B000489828A838CF0121800F9B9030280067D007E007F00ED4E6006C3E51C9B50B72E
:20173B00ED4E600D8E0490E6B3ECF090E6B4EDF02290E6A0E043E001F0227E127F3E90E637
:20175B00B3EFF090E6B47412F02290E6B3E51BF090E6B4E51AF02290E6A0E043E001F0229A
:2000D3007909E94400601B7A0190188578B875923CE493F2A308B800020592D9F4DAF27555
:0200F30092FF7A
:20009C00C000A88118C0D0B6001B18B658004015B67F005010C0E0E65407B406005004E6FD
:0A00BC0054F8F6D0E0D0D0D00032A6
:1B177B0020F71130F6138883A88220F509F6A8837583002280FEF280F5F0226D
:203F00000203100002032800021820000218250002033E0002038B0002181D000217A10022
:203F20000217A3000217A4000217A5000217A80002182700021828000217960002179800A6
:203F4000021822000217A10002181C0002181E0002181F000218210002182300021824000E
:203F60000217FF000217A1000217A1000217A1000217A2000217A6000217A9000217AB00FB
:203F80000217A7000217AA000217AC000217FE000217990002179B0002179D0002179F00EE
:183FA00002179A0002179C0002179E000217A000021797000218260041
:011796003220
:01179700321F
:01179800321E
:01179900321D
:01179A00321C
:2000FB007800E84400600A790075923CE4F309D8FC78B8E84400600C7901903C00E4F0A3E2
:04011B00D8FCD9FA39
:01179B00321B
:01179C00321A
:01179D003219
:01179E003218
:01179F003217
:0117A0003216
:0117A1003215
:0117A2003214
:0117A3003213
:0117A4003212
:0117A5003211
:0117A6003210
:0117A700320F
:0117A800320E
:0117A900320D
:0117AA00320C
:0117AB00320B
:0117AC00320A
:2017AD00AE82AF8390E600E05418C423541F70057CB1FD801C90E600E05418C423541FFB4C
:2017CD00BB01067A617B0180047AC27B028A048B058C1C8D1DE51C24FFFAE51D34FFFB8A5E
:1117ED001C8B1DEA4B70EE1EBEFF011FEE4F70E122E9
:0117FE0032B8
:0117FF0032B7
:0D00C60075817A121829E582600302009905
:1C18000020F71430F6148883A88220F507E6A88375830022E280F7E49322E022F7
:01181C003299
:01181D003298
:01181E003297
:01181F003296
:011820003295
:011821003294
:011822003293
:011823003292
:011824003291
:011825003290
:01182600328F
:01182700328E
:01182800328D
:0418290075820022A2
:00000001FF
